{
  "_format": "hh3-artifact-1",
  "contractName": "WowoIdeas",
  "sourceName": "contracts/WowoIdeas.sol",
  "abi": [
    {
      "inputs": [
        {
          "internalType": "uint256",
          "name": "_min_collateral",
          "type": "uint256"
        },
        {
          "internalType": "uint256",
          "name": "_duration",
          "type": "uint256"
        }
      ],
      "stateMutability": "nonpayable",
      "type": "constructor"
    },
    {
      "anonymous": false,
      "inputs": [
        {
          "indexed": true,
          "internalType": "uint256",
          "name": "id",
          "type": "uint256"
        },
        {
          "indexed": false,
          "internalType": "address",
          "name": "reviewer",
          "type": "address"
        },
        {
          "indexed": false,
          "internalType": "uint256",
          "name": "reward",
          "type": "uint256"
        }
      ],
      "name": "ProposalAccepted",
      "type": "event"
    },
    {
      "anonymous": false,
      "inputs": [
        {
          "indexed": true,
          "internalType": "uint256",
          "name": "id",
          "type": "uint256"
        },
        {
          "indexed": false,
          "internalType": "uint256",
          "name": "refunded",
          "type": "uint256"
        },
        {
          "indexed": false,
          "internalType": "uint256",
          "name": "penalty",
          "type": "uint256"
        }
      ],
      "name": "ProposalCancelled",
      "type": "event"
    },
    {
      "anonymous": false,
      "inputs": [
        {
          "indexed": true,
          "internalType": "uint256",
          "name": "id",
          "type": "uint256"
        },
        {
          "indexed": false,
          "internalType": "uint256",
          "name": "refunded",
          "type": "uint256"
        }
      ],
      "name": "ProposalClaimed",
      "type": "event"
    },
    {
      "anonymous": false,
      "inputs": [
        {
          "indexed": true,
          "internalType": "uint256",
          "name": "id",
          "type": "uint256"
        },
        {
          "indexed": false,
          "internalType": "address",
          "name": "creator",
          "type": "address"
        },
        {
          "indexed": false,
          "internalType": "string",
          "name": "title",
          "type": "string"
        },
        {
          "indexed": false,
          "internalType": "uint256",
          "name": "collateral",
          "type": "uint256"
        },
        {
          "indexed": false,
          "internalType": "uint256",
          "name": "deadline",
          "type": "uint256"
        }
      ],
      "name": "ProposalCreated",
      "type": "event"
    },
    {
      "anonymous": false,
      "inputs": [
        {
          "indexed": false,
          "internalType": "address",
          "name": "owner",
          "type": "address"
        },
        {
          "indexed": false,
          "internalType": "uint256",
          "name": "refund",
          "type": "uint256"
        }
      ],
      "name": "WithdrawPenalties",
      "type": "event"
    },
    {
      "inputs": [],
      "name": "Owner",
      "outputs": [
        {
          "internalType": "address",
          "name": "",
          "type": "address"
        }
      ],
      "stateMutability": "view",
      "type": "function"
    },
    {
      "inputs": [],
      "name": "Proposal_count",
      "outputs": [
        {
          "internalType": "uint256",
          "name": "",
          "type": "uint256"
        }
      ],
      "stateMutability": "view",
      "type": "function"
    },
    {
      "inputs": [],
      "name": "Proposal_duration",
      "outputs": [
        {
          "internalType": "uint256",
          "name": "",
          "type": "uint256"
        }
      ],
      "stateMutability": "view",
      "type": "function"
    },
    {
      "inputs": [],
      "name": "Proposal_min_collateral",
      "outputs": [
        {
          "internalType": "uint256",
          "name": "",
          "type": "uint256"
        }
      ],
      "stateMutability": "view",
      "type": "function"
    },
    {
      "inputs": [
        {
          "internalType": "uint256",
          "name": "",
          "type": "uint256"
        }
      ],
      "name": "Proposals",
      "outputs": [
        {
          "internalType": "uint256",
          "name": "id",
          "type": "uint256"
        },
        {
          "internalType": "address payable",
          "name": "creator",
          "type": "address"
        },
        {
          "internalType": "address",
          "name": "buyer",
          "type": "address"
        },
        {
          "internalType": "enum WowoIdeas.WowoProposalStatus",
          "name": "status",
          "type": "uint8"
        },
        {
          "internalType": "uint256",
          "name": "collateral",
          "type": "uint256"
        },
        {
          "internalType": "uint256",
          "name": "deadline",
          "type": "uint256"
        },
        {
          "internalType": "string",
          "name": "title",
          "type": "string"
        },
        {
          "internalType": "string",
          "name": "description",
          "type": "string"
        },
        {
          "internalType": "string",
          "name": "detail",
          "type": "string"
        }
      ],
      "stateMutability": "view",
      "type": "function"
    },
    {
      "inputs": [
        {
          "internalType": "uint256",
          "name": "_id",
          "type": "uint256"
        }
      ],
      "name": "acceptProposal",
      "outputs": [],
      "stateMutability": "payable",
      "type": "function"
    },
    {
      "inputs": [
        {
          "internalType": "uint256",
          "name": "_id",
          "type": "uint256"
        }
      ],
      "name": "cancelProposal",
      "outputs": [],
      "stateMutability": "nonpayable",
      "type": "function"
    },
    {
      "inputs": [
        {
          "internalType": "uint256",
          "name": "_id",
          "type": "uint256"
        }
      ],
      "name": "claimExpiredProposal",
      "outputs": [],
      "stateMutability": "nonpayable",
      "type": "function"
    },
    {
      "inputs": [
        {
          "internalType": "string",
          "name": "_title",
          "type": "string"
        },
        {
          "internalType": "string",
          "name": "_description",
          "type": "string"
        },
        {
          "internalType": "string",
          "name": "_detail",
          "type": "string"
        }
      ],
      "name": "createProposal",
      "outputs": [],
      "stateMutability": "payable",
      "type": "function"
    },
    {
      "inputs": [
        {
          "internalType": "uint256",
          "name": "_id",
          "type": "uint256"
        }
      ],
      "name": "getProposalById",
      "outputs": [
        {
          "internalType": "uint256",
          "name": "id",
          "type": "uint256"
        },
        {
          "internalType": "address",
          "name": "creator",
          "type": "address"
        },
        {
          "internalType": "address",
          "name": "buyer",
          "type": "address"
        },
        {
          "internalType": "string",
          "name": "title",
          "type": "string"
        },
        {
          "internalType": "string",
          "name": "description",
          "type": "string"
        },
        {
          "internalType": "uint256",
          "name": "collateral",
          "type": "uint256"
        },
        {
          "internalType": "uint256",
          "name": "deadline",
          "type": "uint256"
        },
        {
          "internalType": "enum WowoIdeas.WowoProposalStatus",
          "name": "status",
          "type": "uint8"
        }
      ],
      "stateMutability": "view",
      "type": "function"
    },
    {
      "inputs": [],
      "name": "getProposalCount",
      "outputs": [
        {
          "internalType": "uint256",
          "name": "cnt",
          "type": "uint256"
        }
      ],
      "stateMutability": "view",
      "type": "function"
    },
    {
      "inputs": [
        {
          "internalType": "uint256",
          "name": "_id",
          "type": "uint256"
        }
      ],
      "name": "getProposalDetail",
      "outputs": [
        {
          "internalType": "string",
          "name": "detail",
          "type": "string"
        }
      ],
      "stateMutability": "view",
      "type": "function"
    },
    {
      "inputs": [],
      "name": "penaltiesAccumulator",
      "outputs": [
        {
          "internalType": "uint256",
          "name": "",
          "type": "uint256"
        }
      ],
      "stateMutability": "view",
      "type": "function"
    },
    {
      "inputs": [],
      "name": "withdrawPenalties",
      "outputs": [],
      "stateMutability": "nonpayable",
      "type": "function"
    }
  ],
  "bytecode": "0x608060405234801561000f575f80fd5b506040516119a03803806119a083398101604081905261002e9161005c565b5f80546001600160a01b031916331790556001829055610051816201518061007e565b600255506100a79050565b5f806040838503121561006d575f80fd5b505080516020909101519092909150565b80820281158282048414176100a157634e487b7160e01b5f52601160045260245ffd5b92915050565b6118ec806100b45f395ff3fe6080604052600436106100d9575f3560e01c8063583cf3791161007c578063b4a99a4e11610057578063b4a99a4e14610202578063c08cc02d14610238578063d1dbe7d81461024c578063e0a8f6f514610280575f80fd5b8063583cf379146101c857806360c5cc3a146101db578063addf14d8146101ee575f80fd5b80632fb495fa116100b75780632fb495fa146101565780633656de211461016b5780634bb8a9c11461019e5780635362fc54146101b3575f80fd5b806307a9f02d146100dd57806307fb92781461011257806324406c3314610135575b5f80fd5b3480156100e8575f80fd5b506100fc6100f73660046113e5565b61029f565b604051610109919061143f565b60405180910390f35b34801561011d575f80fd5b5061012760045481565b604051908152602001610109565b348015610140575f80fd5b5061015461014f3660046113e5565b610459565b005b348015610161575f80fd5b5061012760035481565b348015610176575f80fd5b5061018a6101853660046113e5565b61069e565b60405161010998979695949392919061148c565b3480156101a9575f80fd5b5061012760025481565b3480156101be575f80fd5b5061012760015481565b6101546101d6366004611540565b610857565b6101546101e93660046113e5565b610afc565b3480156101f9575f80fd5b50610154610deb565b34801561020d575f80fd5b505f54610220906001600160a01b031681565b6040516001600160a01b039091168152602001610109565b348015610243575f80fd5b50600354610127565b348015610257575f80fd5b5061026b6102663660046113e5565b610f57565b604051610109999897969594939291906115d3565b34801561028b575f80fd5b5061015461029a3660046113e5565b611148565b60605f821180156102b257506003548211155b6102d75760405162461bcd60e51b81526004016102ce90611655565b60405180910390fd5b5f82815260056020526040902060016002820154600160a01b900460ff16600381111561030657610306611458565b146103535760405162461bcd60e51b815260206004820152601960248201527f50726f706f73616c206e6f74206163636570746564207965740000000000000060448201526064016102ce565b60028101546001600160a01b031633148061037a575060018101546001600160a01b031633145b6103c65760405162461bcd60e51b815260206004820152601c60248201527f43616e2774206163636573732070726f706f73616c2064657461696c0000000060448201526064016102ce565b8060070180546103d590611683565b80601f016020809104026020016040519081016040528092919081815260200182805461040190611683565b801561044c5780601f106104235761010080835404028352916020019161044c565b820191905f5260205f20905b81548152906001019060200180831161042f57829003601f168201915b5050505050915050919050565b5f8111801561046a57506003548111155b6104865760405162461bcd60e51b81526004016102ce90611655565b5f81815260056020526040902060018101546001600160a01b031633146104e85760405162461bcd60e51b81526020600482015260166024820152754f6e6c792063726561746f722063616e20636c61696d60501b60448201526064016102ce565b5f6002820154600160a01b900460ff16600381111561050957610509611458565b146105565760405162461bcd60e51b815260206004820152601a60248201527f50726f706f73616c20616c72656164792070726f63657373656400000000000060448201526064016102ce565b806004015442116105a95760405162461bcd60e51b815260206004820152601b60248201527f50726f706f73616c206973206e6f74206578706972656420796574000000000060448201526064016102ce565b60028101805460ff60a01b1916600160a11b1790556003810180545f9182905560018301546040519192916001600160a01b039091169083908381818185875af1925050503d805f8114610618576040519150601f19603f3d011682016040523d82523d5f602084013e61061d565b606091505b505090508061065e5760405162461bcd60e51b815260206004820152600d60248201526c1499599d5b990819985a5b1959609a1b60448201526064016102ce565b837f799ec05b17548af58157dca67f8246093e01df8bbe38742e5386a092aab6bfba8360405161069091815260200190565b60405180910390a250505050565b5f805f6060805f805f80891180156106b857506003548911155b6106d45760405162461bcd60e51b81526004016102ce90611655565b5f898152600560208190526040909120805460018201546002830154600384015460048501549585018054959694956001600160a01b039485169594841694919360068901939291600160a01b90910460ff1690859061073390611683565b80601f016020809104026020016040519081016040528092919081815260200182805461075f90611683565b80156107aa5780601f10610781576101008083540402835291602001916107aa565b820191905f5260205f20905b81548152906001019060200180831161078d57829003601f168201915b505050505094508380546107bd90611683565b80601f01602080910402602001604051908101604052809291908181526020018280546107e990611683565b80156108345780601f1061080b57610100808354040283529160200191610834565b820191905f5260205f20905b81548152906001019060200180831161081757829003601f168201915b505050505093509850985098509850985098509850985050919395975091939597565b6001543410156108cf5760405162461bcd60e51b815260206004820152603a60248201527f43616e277420696e70757420636f6c6c61746572616c203c20736d617274206360448201527f6f6e7472616374206d696e696d756d20636f6c6c61746572616c00000000000060648201526084016102ce565b5f600254426108de91906116cf565b600380549192505f6108ef836116e8565b9091555050604080516101208101825260035481523360208201525f918101829052906060820190815260200134815260200182815260200188888080601f0160208091040260200160405190810160405280939291908181526020018383808284375f92019190915250505090825250604080516020601f8901819004810282018101909252878152918101919088908890819084018382808284375f92019190915250505090825250604080516020601f8701819004810282018101909252858152918101919086908690819084018382808284375f9201829052509390945250506003805482526005602090815260409283902085518155908501516001820180546001600160a01b039283166001600160a01b0319918216179091559386015160028301805491909216948116851782556060870151929550919390926001600160a81b03199092161790600160a01b908490811115610a5557610a55611458565b02179055506080820151600382015560a0820151600482015560c08201516005820190610a829082611762565b5060e08201516006820190610a979082611762565b506101008201516007820190610aad9082611762565b509050506003547f6c98a8c940418b35614f0cd02412d5c9606faff474cbb6cdd6640ba5d1a9f06b3389893486604051610aeb95949392919061181e565b60405180910390a250505050505050565b5f81118015610b0d57506003548111155b610b295760405162461bcd60e51b81526004016102ce90611655565b5f81815260056020526040902060018101546001600160a01b03163303610b925760405162461bcd60e51b815260206004820152601e60248201527f43616e27742061636365707420796f7572206f776e2070726f706f73616c000060448201526064016102ce565b5f6002820154600160a01b900460ff166003811115610bb357610bb3611458565b14610c105760405162461bcd60e51b815260206004820152602760248201527f43616e206f6e6c79206163636570742070656e64696e672073746174757320706044820152661c9bdc1bdcd85b60ca1b60648201526084016102ce565b8060040154421115610c645760405162461bcd60e51b815260206004820152601d60248201527f43616e27742061636365707420657870697265642070726f706f73616c00000060448201526064016102ce565b5f60648260030154606e610c78919061186d565b610c829190611884565b905080341015610cd45760405162461bcd60e51b815260206004820152601e60248201527f43616e277420726577617264203c203131302520636f6c6c61746572616c000060448201526064016102ce565b600282018054336001600160a81b031990911617600160a01b17905560038201545f90610d029034906116cf565b60018401546040519192505f916001600160a01b039091169083908381818185875af1925050503d805f8114610d53576040519150601f19603f3d011682016040523d82523d5f602084013e610d58565b606091505b5050905080610da95760405162461bcd60e51b815260206004820152601a60248201527f5472616e7366657220746f2063726561746f72206661696c656400000000000060448201526064016102ce565b6040805133815234602082015286917fea45672a2d92b09ff2dd48aa67615f8b5c79d7808b7282fc026a24e00283f78d91015b60405180910390a25050505050565b5f546001600160a01b03163314610e3c5760405162461bcd60e51b81526020600482015260156024820152744f6e6c79206f776e65722063616e2061636365737360581b60448201526064016102ce565b60045480610e835760405162461bcd60e51b81526020600482015260146024820152734e6f2066756e647320746f20776974686472617760601b60448201526064016102ce565b5f600481905580546040516001600160a01b039091169083908381818185875af1925050503d805f8114610ed2576040519150601f19603f3d011682016040523d82523d5f602084013e610ed7565b606091505b5050905080610f1a5760405162461bcd60e51b815260206004820152600f60248201526e15da5d1a191c985dc819985a5b1959608a1b60448201526064016102ce565b60408051338152602081018490527f6a0e653cb720bea1f0661702480ca0dda947db52027a3bf3670bb1c403efcc60910160405180910390a15050565b600560208190525f918252604090912080546001820154600283015460038401546004850154958501805494966001600160a01b039485169694841695600160a01b90940460ff1694929390929190610faf90611683565b80601f0160208091040260200160405190810160405280929190818152602001828054610fdb90611683565b80156110265780601f10610ffd57610100808354040283529160200191611026565b820191905f5260205f20905b81548152906001019060200180831161100957829003601f168201915b50505050509080600601805461103b90611683565b80601f016020809104026020016040519081016040528092919081815260200182805461106790611683565b80156110b25780601f10611089576101008083540402835291602001916110b2565b820191905f5260205f20905b81548152906001019060200180831161109557829003601f168201915b5050505050908060070180546110c790611683565b80601f01602080910402602001604051908101604052809291908181526020018280546110f390611683565b801561113e5780601f106111155761010080835404028352916020019161113e565b820191905f5260205f20905b81548152906001019060200180831161112157829003601f168201915b5050505050905089565b5f8111801561115957506003548111155b6111755760405162461bcd60e51b81526004016102ce90611655565b5f81815260056020526040902060018101546001600160a01b031633146111de5760405162461bcd60e51b815260206004820152601760248201527f4f6e6c792063726561746f722063616e2063616e63656c00000000000000000060448201526064016102ce565b5f6002820154600160a01b900460ff1660038111156111ff576111ff611458565b1461124c5760405162461bcd60e51b815260206004820152601a60248201527f50726f706f73616c20616c72656164792070726f63657373656400000000000060448201526064016102ce565b80600401544211156112b35760405162461bcd60e51b815260206004820152602a60248201527f50726f706f73616c20616c726561647920657870697265642c2075736520636c604482015269185a5b515e1c1a5c995960b21b60648201526084016102ce565b60028101805460ff60a01b1916600360a01b17905560038101545f906064906112dd90600a61186d565b6112e79190611884565b90505f8183600301546112fa91906118a3565b90505f83600301819055508160045f82825461131691906116cf565b909155505060018301546040515f916001600160a01b03169083908381818185875af1925050503d805f8114611367576040519150601f19603f3d011682016040523d82523d5f602084013e61136c565b606091505b50509050806113ad5760405162461bcd60e51b815260206004820152600d60248201526c1499599d5b990819985a5b1959609a1b60448201526064016102ce565b604080518381526020810185905286917fa2f77161eb1537912a1021e5cb2165549e4466325312b890dfbe1c2fb267b78e9101610ddc565b5f602082840312156113f5575f80fd5b5035919050565b5f81518084525f5b8181101561142057602081850181015186830182015201611404565b505f602082860101526020601f19601f83011685010191505092915050565b602081525f61145160208301846113fc565b9392505050565b634e487b7160e01b5f52602160045260245ffd5b6004811061148857634e487b7160e01b5f52602160045260245ffd5b9052565b8881526001600160a01b03888116602083015287166040820152610100606082018190525f906114be838201896113fc565b905082810360808401526114d281886113fc565b9150508460a08301528360c08301526114ee60e083018461146c565b9998505050505050505050565b5f8083601f84011261150b575f80fd5b50813567ffffffffffffffff811115611522575f80fd5b602083019150836020828501011115611539575f80fd5b9250929050565b5f805f805f8060608789031215611555575f80fd5b863567ffffffffffffffff8082111561156c575f80fd5b6115788a838b016114fb565b90985096506020890135915080821115611590575f80fd5b61159c8a838b016114fb565b909650945060408901359150808211156115b4575f80fd5b506115c189828a016114fb565b979a9699509497509295939492505050565b8981526001600160a01b038981166020830152881660408201525f6101206115fe606084018a61146c565b8760808401528660a08401528060c084015261161c818401876113fc565b905082810360e084015261163081866113fc565b905082810361010084015261164581856113fc565b9c9b505050505050505050505050565b602080825260149082015273141c9bdc1bdcd85b08191bdb89dd08195e1a5cdd60621b604082015260600190565b600181811c9082168061169757607f821691505b6020821081036116b557634e487b7160e01b5f52602260045260245ffd5b50919050565b634e487b7160e01b5f52601160045260245ffd5b808201808211156116e2576116e26116bb565b92915050565b5f600182016116f9576116f96116bb565b5060010190565b634e487b7160e01b5f52604160045260245ffd5b601f82111561175d575f81815260208120601f850160051c8101602086101561173a5750805b601f850160051c820191505b8181101561175957828155600101611746565b5050505b505050565b815167ffffffffffffffff81111561177c5761177c611700565b6117908161178a8454611683565b84611714565b602080601f8311600181146117c3575f84156117ac5750858301515b5f19600386901b1c1916600185901b178555611759565b5f85815260208120601f198616915b828110156117f1578886015182559484019460019091019084016117d2565b508582101561180e57878501515f19600388901b60f8161c191681555b5050505050600190811b01905550565b6001600160a01b03861681526080602082018190528101849052838560a08301375f60a085830101525f60a0601f19601f87011683010190508360408301528260608301529695505050505050565b80820281158282048414176116e2576116e26116bb565b5f8261189e57634e487b7160e01b5f52601260045260245ffd5b500490565b818103818111156116e2576116e26116bb56fea2646970667358221220831fdb19cd43db6dce8e561a2e1e95c1031d1f3257394796eb3004701ee9312164736f6c63430008140033",
  "linkReferences": {},
  "deployedLinkReferences": {},
  "immutableReferences": {},
  "inputSourceName": "project/contracts/WowoIdeas.sol",
  "buildInfoId": "solc-0_8_20-ab4f583e9510aa98494ced0ff2c0cd85bf3ad5cb"
}