{
  "_format": "hh3-artifact-1",
  "contractName": "WowoIdeas",
  "sourceName": "contracts/WowoIdeas.sol",
  "abi": [
    {
      "inputs": [
        {
          "internalType": "uint256",
          "name": "_min_collateral",
          "type": "uint256"
        },
        {
          "internalType": "uint256",
          "name": "_duration",
          "type": "uint256"
        }
      ],
      "stateMutability": "nonpayable",
      "type": "constructor"
    },
    {
      "anonymous": false,
      "inputs": [
        {
          "indexed": true,
          "internalType": "uint256",
          "name": "id",
          "type": "uint256"
        },
        {
          "indexed": false,
          "internalType": "address",
          "name": "reviewer",
          "type": "address"
        },
        {
          "indexed": false,
          "internalType": "uint256",
          "name": "reward",
          "type": "uint256"
        }
      ],
      "name": "ProposalAccepted",
      "type": "event"
    },
    {
      "anonymous": false,
      "inputs": [
        {
          "indexed": true,
          "internalType": "uint256",
          "name": "id",
          "type": "uint256"
        },
        {
          "indexed": false,
          "internalType": "uint256",
          "name": "refunded",
          "type": "uint256"
        },
        {
          "indexed": false,
          "internalType": "uint256",
          "name": "penalty",
          "type": "uint256"
        }
      ],
      "name": "ProposalCancelled",
      "type": "event"
    },
    {
      "anonymous": false,
      "inputs": [
        {
          "indexed": true,
          "internalType": "uint256",
          "name": "id",
          "type": "uint256"
        },
        {
          "indexed": false,
          "internalType": "uint256",
          "name": "refunded",
          "type": "uint256"
        }
      ],
      "name": "ProposalClaimed",
      "type": "event"
    },
    {
      "anonymous": false,
      "inputs": [
        {
          "indexed": true,
          "internalType": "uint256",
          "name": "id",
          "type": "uint256"
        },
        {
          "indexed": false,
          "internalType": "address",
          "name": "creator",
          "type": "address"
        },
        {
          "indexed": false,
          "internalType": "string",
          "name": "title",
          "type": "string"
        },
        {
          "indexed": false,
          "internalType": "uint256",
          "name": "collateral",
          "type": "uint256"
        },
        {
          "indexed": false,
          "internalType": "uint256",
          "name": "deadline",
          "type": "uint256"
        }
      ],
      "name": "ProposalCreated",
      "type": "event"
    },
    {
      "inputs": [],
      "name": "Owner",
      "outputs": [
        {
          "internalType": "address",
          "name": "",
          "type": "address"
        }
      ],
      "stateMutability": "view",
      "type": "function"
    },
    {
      "inputs": [],
      "name": "Proposal_count",
      "outputs": [
        {
          "internalType": "uint256",
          "name": "",
          "type": "uint256"
        }
      ],
      "stateMutability": "view",
      "type": "function"
    },
    {
      "inputs": [],
      "name": "Proposal_duration",
      "outputs": [
        {
          "internalType": "uint256",
          "name": "",
          "type": "uint256"
        }
      ],
      "stateMutability": "view",
      "type": "function"
    },
    {
      "inputs": [],
      "name": "Proposal_min_collateral",
      "outputs": [
        {
          "internalType": "uint256",
          "name": "",
          "type": "uint256"
        }
      ],
      "stateMutability": "view",
      "type": "function"
    },
    {
      "inputs": [
        {
          "internalType": "uint256",
          "name": "",
          "type": "uint256"
        }
      ],
      "name": "Proposals",
      "outputs": [
        {
          "internalType": "uint256",
          "name": "id",
          "type": "uint256"
        },
        {
          "internalType": "address payable",
          "name": "creator",
          "type": "address"
        },
        {
          "internalType": "string",
          "name": "title",
          "type": "string"
        },
        {
          "internalType": "string",
          "name": "description",
          "type": "string"
        },
        {
          "internalType": "uint256",
          "name": "collateral",
          "type": "uint256"
        },
        {
          "internalType": "uint256",
          "name": "deadline",
          "type": "uint256"
        },
        {
          "internalType": "enum WowoIdeas.WowoProposalStatus",
          "name": "status",
          "type": "uint8"
        }
      ],
      "stateMutability": "view",
      "type": "function"
    },
    {
      "inputs": [
        {
          "internalType": "uint256",
          "name": "_id",
          "type": "uint256"
        }
      ],
      "name": "acceptProposal",
      "outputs": [],
      "stateMutability": "payable",
      "type": "function"
    },
    {
      "inputs": [
        {
          "internalType": "uint256",
          "name": "_id",
          "type": "uint256"
        }
      ],
      "name": "cancelProposal",
      "outputs": [],
      "stateMutability": "nonpayable",
      "type": "function"
    },
    {
      "inputs": [
        {
          "internalType": "uint256",
          "name": "_id",
          "type": "uint256"
        }
      ],
      "name": "claimExpiredProposal",
      "outputs": [],
      "stateMutability": "nonpayable",
      "type": "function"
    },
    {
      "inputs": [
        {
          "internalType": "string",
          "name": "_title",
          "type": "string"
        },
        {
          "internalType": "string",
          "name": "_description",
          "type": "string"
        }
      ],
      "name": "createProposal",
      "outputs": [],
      "stateMutability": "payable",
      "type": "function"
    },
    {
      "inputs": [
        {
          "internalType": "uint256",
          "name": "_id",
          "type": "uint256"
        }
      ],
      "name": "getProposalById",
      "outputs": [
        {
          "internalType": "uint256",
          "name": "id",
          "type": "uint256"
        },
        {
          "internalType": "address",
          "name": "creator",
          "type": "address"
        },
        {
          "internalType": "string",
          "name": "title",
          "type": "string"
        },
        {
          "internalType": "string",
          "name": "description",
          "type": "string"
        },
        {
          "internalType": "uint256",
          "name": "collateral",
          "type": "uint256"
        },
        {
          "internalType": "uint256",
          "name": "deadline",
          "type": "uint256"
        },
        {
          "internalType": "enum WowoIdeas.WowoProposalStatus",
          "name": "status",
          "type": "uint8"
        }
      ],
      "stateMutability": "view",
      "type": "function"
    }
  ],
  "bytecode": "0x6080604052348015600e575f5ffd5b5060405161135c38038061135c833981016040819052602b916056565b5f80546001600160a01b031916331790556001829055604c81620151806077565b60025550609f9050565b5f5f604083850312156066575f5ffd5b505080516020909101519092909150565b8082028115828204841417609957634e487b7160e01b5f52601160045260245ffd5b92915050565b6112b0806100ac5f395ff3fe60806040526004361061008f575f3560e01c806360c5cc3a1161005757806360c5cc3a1461013857806365e481e21461014b578063b4a99a4e1461015e578063d1dbe7d814610194578063e0a8f6f5146101b3575f5ffd5b806324406c33146100935780632fb495fa146100b45780633656de21146100dc5780634bb8a9c11461010e5780635362fc5414610123575b5f5ffd5b34801561009e575f5ffd5b506100b26100ad366004610e8f565b6101d2565b005b3480156100bf575f5ffd5b506100c960035481565b6040519081526020015b60405180910390f35b3480156100e7575f5ffd5b506100fb6100f6366004610e8f565b610413565b6040516100d39796959493929190610f08565b348015610119575f5ffd5b506100c960025481565b34801561012e575f5ffd5b506100c960015481565b6100b2610146366004610e8f565b6105c1565b6100b2610159366004610fb0565b61089c565b348015610169575f5ffd5b505f5461017c906001600160a01b031681565b6040516001600160a01b0390911681526020016100d3565b34801561019f575f5ffd5b506100fb6101ae366004610e8f565b610abe565b3480156101be575f5ffd5b506100b26101cd366004610e8f565b610c13565b5f811180156101e357506003548111155b6102085760405162461bcd60e51b81526004016101ff9061101c565b60405180910390fd5b5f81815260046020526040902060018101546001600160a01b0316331461026a5760405162461bcd60e51b81526020600482015260166024820152754f6e6c792063726561746f722063616e20636c61696d60501b60448201526064016101ff565b5f600682015460ff16600381111561028457610284610ed4565b146102d15760405162461bcd60e51b815260206004820152601a60248201527f50726f706f73616c20616c72656164792070726f63657373656400000000000060448201526064016101ff565b806005015442116103245760405162461bcd60e51b815260206004820152601b60248201527f50726f706f73616c206973206e6f74206578706972656420796574000000000060448201526064016101ff565b60068101805460ff191660021790556004810180545f9182905560018301546040519192916001600160a01b039091169083908381818185875af1925050503d805f811461038d576040519150601f19603f3d011682016040523d82523d5f602084013e610392565b606091505b50509050806103d35760405162461bcd60e51b815260206004820152600d60248201526c1499599d5b990819985a5b1959609a1b60448201526064016101ff565b837f799ec05b17548af58157dca67f8246093e01df8bbe38742e5386a092aab6bfba8360405161040591815260200190565b60405180910390a250505050565b5f5f6060805f5f5f5f8811801561042c57506003548811155b6104485760405162461bcd60e51b81526004016101ff9061101c565b5f888152600460208190526040909120805460018201549282015460058301546006840154600285018054959694956001600160a01b0390951694909360038801939092909160ff90911690859061049f9061104a565b80601f01602080910402602001604051908101604052809291908181526020018280546104cb9061104a565b80156105165780601f106104ed57610100808354040283529160200191610516565b820191905f5260205f20905b8154815290600101906020018083116104f957829003601f168201915b505050505094508380546105299061104a565b80601f01602080910402602001604051908101604052809291908181526020018280546105559061104a565b80156105a05780601f10610577576101008083540402835291602001916105a0565b820191905f5260205f20905b81548152906001019060200180831161058357829003601f168201915b50505050509350975097509750975097509750975050919395979092949650565b5f811180156105d257506003548111155b6105ee5760405162461bcd60e51b81526004016101ff9061101c565b5f81815260046020526040902060018101546001600160a01b031633036106575760405162461bcd60e51b815260206004820152601e60248201527f43616e27742061636365707420796f7572206f776e2070726f706f73616c000060448201526064016101ff565b5f600682015460ff16600381111561067157610671610ed4565b146106ce5760405162461bcd60e51b815260206004820152602760248201527f43616e206f6e6c79206163636570742070656e64696e672073746174757320706044820152661c9bdc1bdcd85b60ca1b60648201526084016101ff565b80600501544211156107225760405162461bcd60e51b815260206004820152601d60248201527f43616e27742061636365707420657870697265642070726f706f73616c00000060448201526064016101ff565b5f60648260040154606e6107369190611096565b61074091906110b3565b9050803410156107925760405162461bcd60e51b815260206004820152601e60248201527f43616e277420726577617264203c203131302520636f6c6c61746572616c000060448201526064016101ff565b60068201805460ff1916600117905560048201545f906107b39034906110d2565b60018401546040519192505f916001600160a01b039091169083908381818185875af1925050503d805f8114610804576040519150601f19603f3d011682016040523d82523d5f602084013e610809565b606091505b505090508061085a5760405162461bcd60e51b815260206004820152601a60248201527f5472616e7366657220746f2063726561746f72206661696c656400000000000060448201526064016101ff565b6040805133815234602082015286917fea45672a2d92b09ff2dd48aa67615f8b5c79d7808b7282fc026a24e00283f78d91015b60405180910390a25050505050565b6001543410156109145760405162461bcd60e51b815260206004820152603a60248201527f43616e277420696e70757420636f6c6c61746572616c203c20736d617274206360448201527f6f6e7472616374206d696e696d756d20636f6c6c61746572616c00000000000060648201526084016101ff565b5f6002544261092391906110d2565b600380549192505f610934836110e5565b91905055506040518060e001604052806003548152602001336001600160a01b0316815260200186868080601f0160208091040260200160405190810160405280939291908181526020018383808284375f92019190915250505090825250604080516020601f8701819004810282018101909252858152918101919086908690819084018382808284375f920182905250938552505034602084015250604082018490526060909101526003545f9081526004602090815260409182902083518155908301516001820180546001600160a01b0319166001600160a01b03909216919091179055908201516002820190610a2f908261115d565b5060608201516003820190610a44908261115d565b506080820151600482015560a0820151600582015560c082015160068201805460ff19166001836003811115610a7c57610a7c610ed4565b02179055509050506003547f6c98a8c940418b35614f0cd02412d5c9606faff474cbb6cdd6640ba5d1a9f06b338787348660405161088d959493929190611218565b60046020525f908152604090208054600182015460028301805492936001600160a01b0390921692610aef9061104a565b80601f0160208091040260200160405190810160405280929190818152602001828054610b1b9061104a565b8015610b665780601f10610b3d57610100808354040283529160200191610b66565b820191905f5260205f20905b815481529060010190602001808311610b4957829003601f168201915b505050505090806003018054610b7b9061104a565b80601f0160208091040260200160405190810160405280929190818152602001828054610ba79061104a565b8015610bf25780601f10610bc957610100808354040283529160200191610bf2565b820191905f5260205f20905b815481529060010190602001808311610bd557829003601f168201915b50505050600483015460058401546006909401549293909290915060ff1687565b5f81118015610c2457506003548111155b610c405760405162461bcd60e51b81526004016101ff9061101c565b5f81815260046020526040902060018101546001600160a01b03163314610ca95760405162461bcd60e51b815260206004820152601760248201527f4f6e6c792063726561746f722063616e2063616e63656c00000000000000000060448201526064016101ff565b5f600682015460ff166003811115610cc357610cc3610ed4565b14610d105760405162461bcd60e51b815260206004820152601a60248201527f50726f706f73616c20616c72656164792070726f63657373656400000000000060448201526064016101ff565b8060050154421115610d775760405162461bcd60e51b815260206004820152602a60248201527f50726f706f73616c20616c726561647920657870697265642c2075736520636c604482015269185a5b515e1c1a5c995960b21b60648201526084016101ff565b60068101805460ff1916600317905560048101545f90606490610d9b90600a611096565b610da591906110b3565b90505f818360040154610db89190611267565b5f60048501819055600185015460405192935090916001600160a01b039091169083908381818185875af1925050503d805f8114610e11576040519150601f19603f3d011682016040523d82523d5f602084013e610e16565b606091505b5050905080610e575760405162461bcd60e51b815260206004820152600d60248201526c1499599d5b990819985a5b1959609a1b60448201526064016101ff565b604080518381526020810185905286917fa2f77161eb1537912a1021e5cb2165549e4466325312b890dfbe1c2fb267b78e910161088d565b5f60208284031215610e9f575f5ffd5b5035919050565b5f81518084528060208401602086015e5f602082860101526020601f19601f83011685010191505092915050565b634e487b7160e01b5f52602160045260245ffd5b60048110610f0457634e487b7160e01b5f52602160045260245ffd5b9052565b8781526001600160a01b038716602082015260e0604082018190525f90610f3190830188610ea6565b8281036060840152610f438188610ea6565b9150508460808301528360a0830152610f5f60c0830184610ee8565b98975050505050505050565b5f5f83601f840112610f7b575f5ffd5b50813567ffffffffffffffff811115610f92575f5ffd5b602083019150836020828501011115610fa9575f5ffd5b9250929050565b5f5f5f5f60408587031215610fc3575f5ffd5b843567ffffffffffffffff811115610fd9575f5ffd5b610fe587828801610f6b565b909550935050602085013567ffffffffffffffff811115611004575f5ffd5b61101087828801610f6b565b95989497509550505050565b602080825260149082015273141c9bdc1bdcd85b08191bdb89dd08195e1a5cdd60621b604082015260600190565b600181811c9082168061105e57607f821691505b60208210810361107c57634e487b7160e01b5f52602260045260245ffd5b50919050565b634e487b7160e01b5f52601160045260245ffd5b80820281158282048414176110ad576110ad611082565b92915050565b5f826110cd57634e487b7160e01b5f52601260045260245ffd5b500490565b808201808211156110ad576110ad611082565b5f600182016110f6576110f6611082565b5060010190565b634e487b7160e01b5f52604160045260245ffd5b601f82111561115857805f5260205f20601f840160051c810160208510156111365750805b601f840160051c820191505b81811015611155575f8155600101611142565b50505b505050565b815167ffffffffffffffff811115611177576111776110fd565b61118b81611185845461104a565b84611111565b6020601f8211600181146111bd575f83156111a65750848201515b5f19600385901b1c1916600184901b178455611155565b5f84815260208120601f198516915b828110156111ec57878501518255602094850194600190920191016111cc565b508482101561120957868401515f19600387901b60f8161c191681555b50505050600190811b01905550565b6001600160a01b03861681526080602082018190528101849052838560a08301375f60a085830101525f60a0601f19601f87011683010190508360408301528260608301529695505050505050565b818103818111156110ad576110ad61108256fea2646970667358221220912459d98b654a3a81c897fc409435caa6bc784b81a8872c5e432d669a53e73264736f6c634300081c0033",
  "linkReferences": {},
  "deployedLinkReferences": {},
  "immutableReferences": {},
  "inputSourceName": "project/contracts/WowoIdeas.sol",
  "buildInfoId": "solc-0_8_28-de67fa7fbf502988d24e350ec45d3b26a6b3cb3e"
}